:020000040000fa
:080000000002040000000000f2
:020000040000fa
:100008009a0200009a0200009a0200009a02000078
:100018009a0200009a0200009a0200009a02000068
:100028009a0200009a0200009a0200009a02000058
:100038009a0200009a0200009a0200009a02000048
:020000040000fa
:020000040000fa
:10040000cf8020000e7f22000e0188000000000037
:10041000000020000000e000020032000001200087
:10042000200288000c000700e041200001002000ad
:1004300011000700000020000000e0000200320070
:1004400000000200000000009e0202000000000008
:100450000040da000000fe004440a9000000200037
:100460000000e0000300320000002000a00188002e
:100470004440a80000000600910188008000780038
:100480000000eb0015003700e280400032a0b4000d
:100490009101ba00e280400032a0b4009102ba009b
:1004a000e280400032a0b4000002eb00472bde00e7
:1004b000f507b200602ce10004003a000059eb009f
:1004c0008301e900fdff3e00040037006128e100e0
:1004d000010032000082eb00040007001101ba00a5
:1004e0000200e000e8ff3a00000006003159ba00bf
:1004f0008301e9000c0032002159ba008301e900b0
:10050000080032000400e00003003a00e2804000ee
:1005100032a0b400f5ff370011d9ba008301e90019
:10052000faff3a008100e800e180400032a0b40008
:0c053000000006000040da000000fe00a1
:020000040000fa
:10053c000000fa000001280090088800c022ef009b
:10054c00d222ef0030002000c0168800da22ef0023
:10055c00d422ef00c222ef000828ef000a28ef0097
:10056c00d402a800100020001d000700d402a9002e
:10057c004800070040408000e10f500002003a00a4
:10058c00c222a80004003700404080000000e000b8
:10059c0001003a00c222a90050408000e10f500037
:1005ac0002003a00c242a80006003700504080000a
:1005bc000000e00002003a00c242a900010037002e
:1005cc000000000051088000f0a52e00808f500024
:1005dc00fcff36004001200014000700deff37004e
:1005ec000400fa00100798000000eb00000f7800e0
:1005fc0000012800200888009e009000000a2000be
:10060c000088b90000007800000f78000021ef008e
:10061c00000000009e00780000088000808f5000d1
:10062c00fcff3e000080fa00000006000400fa0007
:10063c00100798000000eb00000f78000003280062
:10064c00800888001e0090000000e0000f003400bd
:10065c009e00900080412000808f50000b003c00d9
:10066c009e009000e00320000088b9000000780094
:10067c00000f78000621ef00000000009e007800bb
:10068c0030088000808f5000fcff3e000080fa0094
:10069c00000006000c00fa000000eb00000f7800d0
:1006ac000000eb00100798000000eb0040079800da
:1006bc000000eb00500798000a21ef002c003700d7
:1006cc00d0168000610060000000e00007003200de
:1006dc001e0078000000e00004003a00100020002a
:1006ec00000f78005008800020079800d01680007a
:1006fc00620060000000e000070032001e00900065
:10070c000000e00004003a001000200010079800e0
:10071c005008800030079800d016800061006000ff
:10072c000000e00007003a001e007800e10f5000c6
:10073c0004003a000000eb00000f78005008800025
:10074c0040079800d0168000620060000000e000b6
:10075c0007003a001e009000e10f500004003a0020
:10076c000000eb001007980050088000500798001c
:10077c0051088000f0702200808f5000d0ff3600ae
:10078c004e0090000000e00002003a00500880008b
:10079c00400798005e0090000000e00002003a0064
:1007ac005008800050079800ce0090002e0090005a
:1007bc008080500000b92000808f500003003c0066
:1007cc00100020004040880007003700ce00900049
:1007dc002e0090008080500010b92000808f5000b7
:1007ec00010034000828ef00de0090003e0090006d
:1007fc008080500000b92000808f500003003c0026
:10080c00100020005040880007003700de009000e8
:10081c003e0090008080500010b92000808f500066
:10082c00010034000a28ef000080fa0000000600e6
:020000040000fa
:10083c00000800000c000000000000000000000098
:020000040000fa
:020000040002f8
:04aff800bd7b00001d
:020000040000fa
:020000040002f8
:04affc007f3f000093
:00000001FF
