:020000040000fa
:080000000002040000000000f2
:020000040000fa
:100008009a0200009a0200009a0200009a02000078
:100018009a0200009a0200009a0200009a02000068
:100028009a0200009a0200009a0200009a02000058
:100038009a0200009a0200009a0200009a02000048
:020000040000fa
:020000040000fa
:10040000cf8020000e7f22000e0188000000000037
:10041000000020000000e000020032000001200087
:10042000200288000c000700803e20000100200010
:1004300011000700000020000000e0000200320070
:100440000000020000000000dc02020000000000ca
:100450000040da000000fe004440a9000000200037
:100460000000e0000300320000002000a00188002e
:100470004440a80000000600910188008000780038
:100480000000eb0015003700e280400032a0b4000d
:100490009101ba00e280400032a0b4009102ba009b
:1004a000e280400032a0b4000002eb00472bde00e7
:1004b000f507b200602ce10004003a000059eb009f
:1004c0008301e900fdff3e00040037006128e100e0
:1004d000010032000082eb00040007001101ba00a5
:1004e0000200e000e8ff3a00000006003159ba00bf
:1004f0008301e9000c0032002159ba008301e900b0
:10050000080032000400e00003003a00e2804000ee
:1005100032a0b400f5ff370011d9ba008301e90019
:10052000faff3a008100e800e180400032a0b40008
:10053000000006000040da000000fe00839f680013
:100540000100e00002003d0060001000e0801800a3
:100550000300e00002003d0060011100e08119008d
:10056000050007004f00e00002003b0060001000a3
:10057000e0801800000006006022b800060220009b
:100580000000d0008180d2000482d2008582d20097
:100590000000a0000202520083825a0003003100d2
:1005a0000202420083824a000000a1000603e90023
:0805b000f3ff3a000000060011
:020000040000fa
:1005b8000000fa000001280090088800c022ef001f
:1005c800d222ef0030002000c0168800da22ef00a7
:1005d800d422ef00c222ef000828ef000a28ef001b
:1005e800d402a800100020001e000700d402a900b1
:1005f800490007001040880040408000e10f50008b
:1006080002003a00c222a8000400370040408000df
:100618000000e00001003a00c222a900504080001a
:10062800e10f500002003a00c242a800060037005d
:10063800504080000000e00002003a00c242a900d9
:10064800010037000000000051088000f0a52e00ce
:10065800808f5000fcff3600a00020001400070027
:10066800ddff37000400fa00100798000000eb00d7
:10067800000f780000012800200888009e009000e4
:10068800000a20000088b90000007800000f7800f8
:100698000021ef00000000009e00780000088000a4
:1006a800808f5000fcff3e000080fa00000006002a
:1006b8000400fa00100798000000eb00000f780013
:1006c80000032800800888001e0090000000e00059
:1006d8000f0034009e00900080412000808f500061
:1006e8000b003c009e009000e00320000088b90049
:1006f80000007800000f78000621ef0000000000dd
:100708009e00780030088000808f5000fcff3e007b
:100718000080fa00000006000200fa000000eb006a
:10072800000f780000000000d01680000000e000f4
:10073800fdff32000a21ef000c003700d0168000c0
:10074800610060000000e00002003a001000200094
:1007580040408800d0168000620060000000e00081
:1007680002003a0010002000504088005108800024
:10077800f0b82000808f5000f0ff3600500880004d
:100788004300dd008000eb0002402200430f200000
:1007980068ff0700000f78001e0078006a00b900a3
:1007a80000007800e6006800400920000001780099
:1007b800110009008200d800104088001040800015
:0807c8000080fa0000000600a9
:020000040000fa
:1007d000000800000c000000000000000000000005
:020000040000fa
:020000040002f8
:04aff800bd7b00001d
:020000040000fa
:020000040002f8
:04affc007f3f000093
:00000001FF
